{
  "contractName": "Hellosolidity",
  "abi": [
    {
      "inputs": [],
      "name": "xSquare",
      "outputs": [
        {
          "internalType": "uint256",
          "name": "",
          "type": "uint256"
        }
      ],
      "stateMutability": "view",
      "type": "function"
    },
    {
      "inputs": [
        {
          "internalType": "uint256",
          "name": "a",
          "type": "uint256"
        },
        {
          "internalType": "uint256",
          "name": "b",
          "type": "uint256"
        }
      ],
      "name": "add",
      "outputs": [
        {
          "internalType": "uint256",
          "name": "",
          "type": "uint256"
        }
      ],
      "stateMutability": "pure",
      "type": "function"
    },
    {
      "inputs": [
        {
          "internalType": "uint256",
          "name": "a",
          "type": "uint256"
        },
        {
          "internalType": "uint256",
          "name": "b",
          "type": "uint256"
        }
      ],
      "name": "subtract",
      "outputs": [
        {
          "internalType": "uint256",
          "name": "",
          "type": "uint256"
        }
      ],
      "stateMutability": "pure",
      "type": "function"
    },
    {
      "inputs": [
        {
          "internalType": "uint256",
          "name": "a",
          "type": "uint256"
        },
        {
          "internalType": "uint256",
          "name": "b",
          "type": "uint256"
        }
      ],
      "name": "multiply",
      "outputs": [
        {
          "internalType": "uint256",
          "name": "",
          "type": "uint256"
        }
      ],
      "stateMutability": "pure",
      "type": "function"
    },
    {
      "inputs": [
        {
          "internalType": "uint256",
          "name": "a",
          "type": "uint256"
        },
        {
          "internalType": "uint256",
          "name": "b",
          "type": "uint256"
        }
      ],
      "name": "divide",
      "outputs": [
        {
          "internalType": "uint256",
          "name": "",
          "type": "uint256"
        }
      ],
      "stateMutability": "pure",
      "type": "function"
    },
    {
      "inputs": [],
      "name": "halfX",
      "outputs": [],
      "stateMutability": "nonpayable",
      "type": "function"
    }
  ],
  "bytecode": "0x608060405234801561000f575f80fd5b506103758061001d5f395ff3fe608060405234801561000f575f80fd5b5060043610610060575f3560e01c8063165c4a16146100645780633ef5e44514610094578063771602f7146100c4578063d01a6e42146100f4578063ed6544c6146100fe578063f88e9fbf1461011c575b5f80fd5b61007e600480360381019061007991906101db565b61014c565b60405161008b9190610228565b60405180910390f35b6100ae60048036038101906100a991906101db565b610153565b6040516100bb9190610228565b60405180910390f35b6100de60048036038101906100d991906101db565b61015a565b6040516100eb9190610228565b60405180910390f35b6100fc61016f565b005b610106610189565b6040516101139190610228565b60405180910390f35b610136600480360381019061013191906101db565b61019d565b6040516101439190610228565b60405180910390f35b5f92915050565b5f92915050565b5f8183610167919061026e565b905092915050565b60025f8082825461018091906102ce565b92505081905550565b5f80545f5461019891906102fe565b905090565b5f92915050565b5f80fd5b5f819050919050565b6101ba816101a8565b81146101c4575f80fd5b50565b5f813590506101d5816101b1565b92915050565b5f80604083850312156101f1576101f06101a4565b5b5f6101fe858286016101c7565b925050602061020f858286016101c7565b9150509250929050565b610222816101a8565b82525050565b5f60208201905061023b5f830184610219565b92915050565b7f4e487b71000000000000000000000000000000000000000000000000000000005f52601160045260245ffd5b5f610278826101a8565b9150610283836101a8565b925082820190508082111561029b5761029a610241565b5b92915050565b7f4e487b71000000000000000000000000000000000000000000000000000000005f52601260045260245ffd5b5f6102d8826101a8565b91506102e3836101a8565b9250826102f3576102f26102a1565b5b828204905092915050565b5f610308826101a8565b9150610313836101a8565b9250828202610321816101a8565b9150828204841483151761033857610337610241565b5b509291505056fea26469706673582212207fa900acaf12f0f1f7fa5a332a4fc6bfefa53afed38d9b53371ddf355816c2e464736f6c63430008150033",
  "immutableReferences": {},
  "source": "// SPDX-License-Identifier: SEE LICENSE IN LICENSE\r\npragma solidity ^0.8.21;\r\n\r\ncontract Hellosolidity {\r\n    uint x;\r\n    bool y;\r\n\r\n    function xSquare() view public  returns (uint) {\r\n        return x * x;\r\n    }\r\n\r\n    function add (uint a, uint b) pure public returns (uint) {\r\n        return a + b;\r\n    }\r\n\r\n    function subtract(uint a, uint b) pure public returns (uint){\r\n        return 0;\r\n    }\r\n\r\n    function multiply (uint a, uint b) pure public returns (uint){\r\n        return 0;\r\n    }\r\n\r\n    function divide(uint a, uint b) pure public returns (uint){\r\n        return 0;\r\n    }\r\n\r\n    function halfX () public {\r\n        x /= 2;\r\n    }\r\n\r\n}",
  "sourcePath": "T:\\helloSolidity\\contracts\\HelloSolidity.sol",
  "compiler": {
    "name": "solc",
    "version": "0.8.21+commit.d9974bed.Emscripten.clang"
  },
  "schemaVersion": "3.4.16",
  "updatedAt": "2024-10-15T04:35:11.770Z",
  "devdoc": {
    "kind": "dev",
    "methods": {},
    "version": 1
  },
  "userdoc": {
    "kind": "user",
    "methods": {},
    "version": 1
  }
}